{
  "_format": "hh-sol-artifact-1",
  "contractName": "ProjectFunding",
  "sourceName": "contracts/ProjectFunding.sol",
  "abi": [
    {
      "anonymous": false,
      "inputs": [
        {
          "indexed": true,
          "internalType": "uint256",
          "name": "projectId",
          "type": "uint256"
        },
        {
          "indexed": true,
          "internalType": "address",
          "name": "donor",
          "type": "address"
        },
        {
          "indexed": false,
          "internalType": "uint256",
          "name": "amount",
          "type": "uint256"
        },
        {
          "indexed": false,
          "internalType": "uint256",
          "name": "timestamp",
          "type": "uint256"
        }
      ],
      "name": "DonationReceived",
      "type": "event"
    },
    {
      "anonymous": false,
      "inputs": [
        {
          "indexed": true,
          "internalType": "uint256",
          "name": "projectId",
          "type": "uint256"
        },
        {
          "indexed": false,
          "internalType": "bool",
          "name": "isFundingActive",
          "type": "bool"
        },
        {
          "indexed": false,
          "internalType": "uint256",
          "name": "timestamp",
          "type": "uint256"
        }
      ],
      "name": "FundingStatusChanged",
      "type": "event"
    },
    {
      "anonymous": false,
      "inputs": [
        {
          "indexed": true,
          "internalType": "uint256",
          "name": "projectId",
          "type": "uint256"
        },
        {
          "indexed": true,
          "internalType": "address",
          "name": "beneficiary",
          "type": "address"
        },
        {
          "indexed": false,
          "internalType": "uint256",
          "name": "amount",
          "type": "uint256"
        },
        {
          "indexed": false,
          "internalType": "uint256",
          "name": "timestamp",
          "type": "uint256"
        }
      ],
      "name": "FundsWithdrawn",
      "type": "event"
    },
    {
      "anonymous": false,
      "inputs": [
        {
          "indexed": true,
          "internalType": "uint256",
          "name": "projectId",
          "type": "uint256"
        },
        {
          "indexed": false,
          "internalType": "uint256",
          "name": "timestamp",
          "type": "uint256"
        }
      ],
      "name": "ProjectCompleted",
      "type": "event"
    },
    {
      "anonymous": false,
      "inputs": [
        {
          "indexed": true,
          "internalType": "uint256",
          "name": "projectId",
          "type": "uint256"
        },
        {
          "indexed": false,
          "internalType": "string",
          "name": "name",
          "type": "string"
        },
        {
          "indexed": true,
          "internalType": "address",
          "name": "beneficiary",
          "type": "address"
        },
        {
          "indexed": false,
          "internalType": "uint256",
          "name": "fundingGoal",
          "type": "uint256"
        },
        {
          "indexed": false,
          "internalType": "uint256",
          "name": "timestamp",
          "type": "uint256"
        }
      ],
      "name": "ProjectCreated",
      "type": "event"
    },
    {
      "inputs": [
        {
          "internalType": "uint256",
          "name": "_projectId",
          "type": "uint256"
        }
      ],
      "name": "completeProject",
      "outputs": [],
      "stateMutability": "nonpayable",
      "type": "function"
    },
    {
      "inputs": [
        {
          "internalType": "string",
          "name": "_name",
          "type": "string"
        },
        {
          "internalType": "string",
          "name": "_description",
          "type": "string"
        },
        {
          "internalType": "string",
          "name": "_location",
          "type": "string"
        },
        {
          "internalType": "uint256",
          "name": "_fundingGoal",
          "type": "uint256"
        },
        {
          "internalType": "address payable",
          "name": "_beneficiary",
          "type": "address"
        }
      ],
      "name": "createProject",
      "outputs": [
        {
          "internalType": "uint256",
          "name": "",
          "type": "uint256"
        }
      ],
      "stateMutability": "nonpayable",
      "type": "function"
    },
    {
      "inputs": [
        {
          "internalType": "uint256",
          "name": "_projectId",
          "type": "uint256"
        }
      ],
      "name": "donateToProject",
      "outputs": [],
      "stateMutability": "payable",
      "type": "function"
    },
    {
      "inputs": [],
      "name": "getAllProjects",
      "outputs": [
        {
          "components": [
            {
              "internalType": "uint256",
              "name": "id",
              "type": "uint256"
            },
            {
              "internalType": "string",
              "name": "name",
              "type": "string"
            },
            {
              "internalType": "string",
              "name": "description",
              "type": "string"
            },
            {
              "internalType": "string",
              "name": "location",
              "type": "string"
            },
            {
              "internalType": "uint256",
              "name": "fundingGoal",
              "type": "uint256"
            },
            {
              "internalType": "uint256",
              "name": "fundsRaised",
              "type": "uint256"
            },
            {
              "internalType": "address payable",
              "name": "beneficiary",
              "type": "address"
            },
            {
              "internalType": "bool",
              "name": "isCompleted",
              "type": "bool"
            },
            {
              "internalType": "bool",
              "name": "isFundingActive",
              "type": "bool"
            },
            {
              "internalType": "uint256",
              "name": "createdAt",
              "type": "uint256"
            }
          ],
          "internalType": "struct ProjectFunding.Project[]",
          "name": "",
          "type": "tuple[]"
        }
      ],
      "stateMutability": "view",
      "type": "function"
    },
    {
      "inputs": [
        {
          "internalType": "uint256",
          "name": "_projectId",
          "type": "uint256"
        }
      ],
      "name": "getProjectDonations",
      "outputs": [
        {
          "components": [
            {
              "internalType": "address",
              "name": "donor",
              "type": "address"
            },
            {
              "internalType": "uint256",
              "name": "projectId",
              "type": "uint256"
            },
            {
              "internalType": "uint256",
              "name": "amount",
              "type": "uint256"
            },
            {
              "internalType": "uint256",
              "name": "timestamp",
              "type": "uint256"
            }
          ],
          "internalType": "struct ProjectFunding.Donation[]",
          "name": "",
          "type": "tuple[]"
        }
      ],
      "stateMutability": "view",
      "type": "function"
    },
    {
      "inputs": [
        {
          "internalType": "uint256",
          "name": "_projectId",
          "type": "uint256"
        }
      ],
      "name": "getProjectWithdrawals",
      "outputs": [
        {
          "components": [
            {
              "internalType": "address",
              "name": "beneficiary",
              "type": "address"
            },
            {
              "internalType": "uint256",
              "name": "projectId",
              "type": "uint256"
            },
            {
              "internalType": "uint256",
              "name": "amount",
              "type": "uint256"
            },
            {
              "internalType": "uint256",
              "name": "timestamp",
              "type": "uint256"
            }
          ],
          "internalType": "struct ProjectFunding.Withdrawal[]",
          "name": "",
          "type": "tuple[]"
        }
      ],
      "stateMutability": "view",
      "type": "function"
    },
    {
      "inputs": [
        {
          "internalType": "address",
          "name": "_user",
          "type": "address"
        }
      ],
      "name": "getUserCreatedProjects",
      "outputs": [
        {
          "internalType": "uint256[]",
          "name": "",
          "type": "uint256[]"
        }
      ],
      "stateMutability": "view",
      "type": "function"
    },
    {
      "inputs": [
        {
          "internalType": "address",
          "name": "_user",
          "type": "address"
        }
      ],
      "name": "getUserDonatedProjects",
      "outputs": [
        {
          "internalType": "uint256[]",
          "name": "",
          "type": "uint256[]"
        }
      ],
      "stateMutability": "view",
      "type": "function"
    },
    {
      "inputs": [
        {
          "internalType": "uint256",
          "name": "",
          "type": "uint256"
        },
        {
          "internalType": "uint256",
          "name": "",
          "type": "uint256"
        }
      ],
      "name": "projectDonations",
      "outputs": [
        {
          "internalType": "address",
          "name": "donor",
          "type": "address"
        },
        {
          "internalType": "uint256",
          "name": "projectId",
          "type": "uint256"
        },
        {
          "internalType": "uint256",
          "name": "amount",
          "type": "uint256"
        },
        {
          "internalType": "uint256",
          "name": "timestamp",
          "type": "uint256"
        }
      ],
      "stateMutability": "view",
      "type": "function"
    },
    {
      "inputs": [
        {
          "internalType": "uint256",
          "name": "",
          "type": "uint256"
        },
        {
          "internalType": "uint256",
          "name": "",
          "type": "uint256"
        }
      ],
      "name": "projectWithdrawals",
      "outputs": [
        {
          "internalType": "address",
          "name": "beneficiary",
          "type": "address"
        },
        {
          "internalType": "uint256",
          "name": "projectId",
          "type": "uint256"
        },
        {
          "internalType": "uint256",
          "name": "amount",
          "type": "uint256"
        },
        {
          "internalType": "uint256",
          "name": "timestamp",
          "type": "uint256"
        }
      ],
      "stateMutability": "view",
      "type": "function"
    },
    {
      "inputs": [
        {
          "internalType": "uint256",
          "name": "",
          "type": "uint256"
        }
      ],
      "name": "projects",
      "outputs": [
        {
          "internalType": "uint256",
          "name": "id",
          "type": "uint256"
        },
        {
          "internalType": "string",
          "name": "name",
          "type": "string"
        },
        {
          "internalType": "string",
          "name": "description",
          "type": "string"
        },
        {
          "internalType": "string",
          "name": "location",
          "type": "string"
        },
        {
          "internalType": "uint256",
          "name": "fundingGoal",
          "type": "uint256"
        },
        {
          "internalType": "uint256",
          "name": "fundsRaised",
          "type": "uint256"
        },
        {
          "internalType": "address payable",
          "name": "beneficiary",
          "type": "address"
        },
        {
          "internalType": "bool",
          "name": "isCompleted",
          "type": "bool"
        },
        {
          "internalType": "bool",
          "name": "isFundingActive",
          "type": "bool"
        },
        {
          "internalType": "uint256",
          "name": "createdAt",
          "type": "uint256"
        }
      ],
      "stateMutability": "view",
      "type": "function"
    },
    {
      "inputs": [
        {
          "internalType": "uint256",
          "name": "_projectId",
          "type": "uint256"
        },
        {
          "internalType": "bool",
          "name": "_isFundingActive",
          "type": "bool"
        }
      ],
      "name": "toggleFundingStatus",
      "outputs": [],
      "stateMutability": "nonpayable",
      "type": "function"
    },
    {
      "inputs": [
        {
          "internalType": "address",
          "name": "",
          "type": "address"
        },
        {
          "internalType": "uint256",
          "name": "",
          "type": "uint256"
        }
      ],
      "name": "userCreatedProjects",
      "outputs": [
        {
          "internalType": "uint256",
          "name": "",
          "type": "uint256"
        }
      ],
      "stateMutability": "view",
      "type": "function"
    },
    {
      "inputs": [
        {
          "internalType": "address",
          "name": "",
          "type": "address"
        },
        {
          "internalType": "uint256",
          "name": "",
          "type": "uint256"
        }
      ],
      "name": "userDonatedProjects",
      "outputs": [
        {
          "internalType": "uint256",
          "name": "",
          "type": "uint256"
        }
      ],
      "stateMutability": "view",
      "type": "function"
    },
    {
      "inputs": [
        {
          "internalType": "uint256",
          "name": "_projectId",
          "type": "uint256"
        }
      ],
      "name": "withdrawFunds",
      "outputs": [],
      "stateMutability": "nonpayable",
      "type": "function"
    }
  ],
  "bytecode": "0x608060405234801561001057600080fd5b506134e3806100206000396000f3fe6080604052600436106100e85760003560e01c8063850a00c11161008a578063c4586b7611610059578063c4586b761461033d578063c56f3cac1461037a578063cb5f8397146103ba578063fde40a4a146103f7576100e8565b8063850a00c114610246578063a29e9dad14610283578063aa1f2170146102c0578063b38132f6146102fd576100e8565b80632245f152116100c65780632245f1521461019957806356adb06f146101c257806359c27753146101de57806380d038291461021b576100e8565b80630ccc9c30146100ed578063107046bd1461012a578063155dd5ee14610170575b600080fd5b3480156100f957600080fd5b50610114600480360381019061010f9190611d6f565b610420565b6040516101219190611ef0565b60405180910390f35b34801561013657600080fd5b50610151600480360381019061014c9190611d6f565b610557565b6040516101679a99989796959493929190611fed565b60405180910390f35b34801561017c57600080fd5b5061019760048036038101906101929190611d6f565b61077d565b005b3480156101a557600080fd5b506101c060048036038101906101bb9190611d6f565b610a72565b005b6101dc60048036038101906101d79190611d6f565b610c34565b005b3480156101ea57600080fd5b50610205600480360381019061020091906121ff565b61100c565b60405161021291906122ce565b60405180910390f35b34801561022757600080fd5b506102306113e0565b60405161023d91906124fb565b60405180910390f35b34801561025257600080fd5b5061026d60048036038101906102689190612549565b611719565b60405161027a9190612625565b60405180910390f35b34801561028f57600080fd5b506102aa60048036038101906102a59190611d6f565b6117b0565b6040516102b7919061274b565b60405180910390f35b3480156102cc57600080fd5b506102e760048036038101906102e2919061276d565b6118e7565b6040516102f491906122ce565b60405180910390f35b34801561030957600080fd5b50610324600480360381019061031f91906127ad565b611918565b60405161033494939291906127fc565b60405180910390f35b34801561034957600080fd5b50610364600480360381019061035f919061276d565b611985565b60405161037191906122ce565b60405180910390f35b34801561038657600080fd5b506103a1600480360381019061039c91906127ad565b6119b6565b6040516103b194939291906127fc565b60405180910390f35b3480156103c657600080fd5b506103e160048036038101906103dc9190612549565b611a23565b6040516103ee9190612625565b60405180910390f35b34801561040357600080fd5b5061041e6004803603810190610419919061286d565b611aba565b005b606060008211801561043457506000548211155b610473576040517f08c379a000000000000000000000000000000000000000000000000000000000815260040161046a906128f9565b60405180910390fd5b60026000838152602001908152602001600020805480602002602001604051908101604052809291908181526020016000905b8282101561054c57838290600052602060002090600402016040518060800160405290816000820160009054906101000a900473ffffffffffffffffffffffffffffffffffffffff1673ffffffffffffffffffffffffffffffffffffffff1673ffffffffffffffffffffffffffffffffffffffff1681526020016001820154815260200160028201548152602001600382015481525050815260200190600101906104a6565b505050509050919050565b600160205280600052604060002060009150905080600001549080600101805461058090612948565b80601f01602080910402602001604051908101604052809291908181526020018280546105ac90612948565b80156105f95780601f106105ce576101008083540402835291602001916105f9565b820191906000526020600020905b8154815290600101906020018083116105dc57829003601f168201915b50505050509080600201805461060e90612948565b80601f016020809104026020016040519081016040528092919081815260200182805461063a90612948565b80156106875780601f1061065c57610100808354040283529160200191610687565b820191906000526020600020905b81548152906001019060200180831161066a57829003601f168201915b50505050509080600301805461069c90612948565b80601f01602080910402602001604051908101604052809291908181526020018280546106c890612948565b80156107155780601f106106ea57610100808354040283529160200191610715565b820191906000526020600020905b8154815290600101906020018083116106f857829003601f168201915b5050505050908060040154908060050154908060060160009054906101000a900473ffffffffffffffffffffffffffffffffffffffff16908060060160149054906101000a900460ff16908060060160159054906101000a900460ff1690806007015490508a565b60008111801561078f57506000548111155b6107ce576040517f08c379a00000000000000000000000000000000000000000000000000000000081526004016107c5906128f9565b60405180910390fd5b60006001600083815260200190815260200160002090508060060160009054906101000a900473ffffffffffffffffffffffffffffffffffffffff1673ffffffffffffffffffffffffffffffffffffffff163373ffffffffffffffffffffffffffffffffffffffff1614610877576040517f08c379a000000000000000000000000000000000000000000000000000000000815260040161086e906129eb565b60405180910390fd5b60008160050154116108be576040517f08c379a00000000000000000000000000000000000000000000000000000000081526004016108b590612a57565b60405180910390fd5b60008160050154905060008260050181905550600060405180608001604052803373ffffffffffffffffffffffffffffffffffffffff1681526020018581526020018381526020014281525090506003600085815260200190815260200160002081908060018154018082558091505060019003906000526020600020906004020160009091909190915060008201518160000160006101000a81548173ffffffffffffffffffffffffffffffffffffffff021916908373ffffffffffffffffffffffffffffffffffffffff16021790555060208201518160010155604082015181600201556060820151816003015550503373ffffffffffffffffffffffffffffffffffffffff16847f3dbb1a26f29aef1264c12ca1285deb60cca5666d8b17100c7ea1602c0a4014f684426040516109f9929190612a77565b60405180910390a38260060160009054906101000a900473ffffffffffffffffffffffffffffffffffffffff1673ffffffffffffffffffffffffffffffffffffffff166108fc839081150290604051600060405180830381858888f19350505050158015610a6b573d6000803e3d6000fd5b5050505050565b600081118015610a8457506000548111155b610ac3576040517f08c379a0000000000000000000000000000000000000000000000000000000008152600401610aba906128f9565b60405180910390fd5b60006001600083815260200190815260200160002090508060060160009054906101000a900473ffffffffffffffffffffffffffffffffffffffff1673ffffffffffffffffffffffffffffffffffffffff163373ffffffffffffffffffffffffffffffffffffffff1614610b6c576040517f08c379a0000000000000000000000000000000000000000000000000000000008152600401610b6390612b12565b60405180910390fd5b8060060160149054906101000a900460ff1615610bbe576040517f08c379a0000000000000000000000000000000000000000000000000000000008152600401610bb590612b7e565b60405180910390fd5b60018160060160146101000a81548160ff02191690831515021790555060008160060160156101000a81548160ff021916908315150217905550817f8215409039677f0e929b3881f268cb9087c47bdabe79981ad9128261c004011142604051610c2891906122ce565b60405180910390a25050565b600081118015610c4657506000548111155b610c85576040517f08c379a0000000000000000000000000000000000000000000000000000000008152600401610c7c906128f9565b60405180910390fd5b60003411610cc8576040517f08c379a0000000000000000000000000000000000000000000000000000000008152600401610cbf90612c10565b60405180910390fd5b60006001600083815260200190815260200160002090508060060160159054906101000a900460ff16610d30576040517f08c379a0000000000000000000000000000000000000000000000000000000008152600401610d2790612c7c565b60405180910390fd5b8060060160149054906101000a900460ff1615610d82576040517f08c379a0000000000000000000000000000000000000000000000000000000008152600401610d7990612b7e565b60405180910390fd5b34816005016000828254610d969190612ccb565b92505081905550600060405180608001604052803373ffffffffffffffffffffffffffffffffffffffff1681526020018481526020013481526020014281525090506002600084815260200190815260200160002081908060018154018082558091505060019003906000526020600020906004020160009091909190915060008201518160000160006101000a81548173ffffffffffffffffffffffffffffffffffffffff021916908373ffffffffffffffffffffffffffffffffffffffff16021790555060208201518160010155604082015181600201556060820151816003015550506000805b600460003373ffffffffffffffffffffffffffffffffffffffff1673ffffffffffffffffffffffffffffffffffffffff16815260200190815260200160002080549050811015610f485784600460003373ffffffffffffffffffffffffffffffffffffffff1673ffffffffffffffffffffffffffffffffffffffff1681526020019081526020016000208281548110610f1c57610f1b612cff565b5b906000526020600020015403610f355760019150610f48565b8080610f4090612d2e565b915050610e80565b5080610fb557600460003373ffffffffffffffffffffffffffffffffffffffff1673ffffffffffffffffffffffffffffffffffffffff1681526020019081526020016000208490806001815401808255809150506001900390600052602060002001600090919091909150555b3373ffffffffffffffffffffffffffffffffffffffff16847f3dbea1b4ce5f95137fdcac9b1d685825c3d70ace830df1ca5a181d3887add4103442604051610ffe929190612a77565b60405180910390a350505050565b600080865111611051576040517f08c379a000000000000000000000000000000000000000000000000000000000815260040161104890612dc2565b60405180910390fd5b6000855111611095576040517f08c379a000000000000000000000000000000000000000000000000000000000815260040161108c90612e54565b60405180910390fd5b60008451116110d9576040517f08c379a00000000000000000000000000000000000000000000000000000000081526004016110d090612ec0565b60405180910390fd5b6000831161111c576040517f08c379a000000000000000000000000000000000000000000000000000000000815260040161111390612f52565b60405180910390fd5b600073ffffffffffffffffffffffffffffffffffffffff168273ffffffffffffffffffffffffffffffffffffffff160361118b576040517f08c379a000000000000000000000000000000000000000000000000000000000815260040161118290612fbe565b60405180910390fd5b60008081548092919061119d90612d2e565b91905055506000805490506000604051806101400160405280838152602001898152602001888152602001878152602001868152602001600081526020018573ffffffffffffffffffffffffffffffffffffffff1681526020016000151581526020016001151581526020014281525090508060016000848152602001908152602001600020600082015181600001556020820151816001019081611242919061318a565b506040820151816002019081611258919061318a565b50606082015181600301908161126e919061318a565b506080820151816004015560a0820151816005015560c08201518160060160006101000a81548173ffffffffffffffffffffffffffffffffffffffff021916908373ffffffffffffffffffffffffffffffffffffffff16021790555060e08201518160060160146101000a81548160ff0219169083151502179055506101008201518160060160156101000a81548160ff0219169083151502179055506101208201518160070155905050600560003373ffffffffffffffffffffffffffffffffffffffff1673ffffffffffffffffffffffffffffffffffffffff1681526020019081526020016000208290806001815401808255809150506001900390600052602060002001600090919091909150558373ffffffffffffffffffffffffffffffffffffffff16827fcfbb9cc3bd62a88127a0a357ef5745ce183a4f314f3f36a4302bbe74b89e2f1d8a88426040516113ca9392919061325c565b60405180910390a3819250505095945050505050565b60606000805467ffffffffffffffff8111156113ff576113fe6120a8565b5b60405190808252806020026020018201604052801561143857816020015b611425611cb8565b81526020019060019003908161141d5790505b5090506000600190505b60005481116117115760016000828152602001908152602001600020604051806101400160405290816000820154815260200160018201805461148490612948565b80601f01602080910402602001604051908101604052809291908181526020018280546114b090612948565b80156114fd5780601f106114d2576101008083540402835291602001916114fd565b820191906000526020600020905b8154815290600101906020018083116114e057829003601f168201915b5050505050815260200160028201805461151690612948565b80601f016020809104026020016040519081016040528092919081815260200182805461154290612948565b801561158f5780601f106115645761010080835404028352916020019161158f565b820191906000526020600020905b81548152906001019060200180831161157257829003601f168201915b505050505081526020016003820180546115a890612948565b80601f01602080910402602001604051908101604052809291908181526020018280546115d490612948565b80156116215780601f106115f657610100808354040283529160200191611621565b820191906000526020600020905b81548152906001019060200180831161160457829003601f168201915b5050505050815260200160048201548152602001600582015481526020016006820160009054906101000a900473ffffffffffffffffffffffffffffffffffffffff1673ffffffffffffffffffffffffffffffffffffffff1673ffffffffffffffffffffffffffffffffffffffff1681526020016006820160149054906101000a900460ff161515151581526020016006820160159054906101000a900460ff16151515158152602001600782015481525050826001836116e2919061329a565b815181106116f3576116f2612cff565b5b6020026020010181905250808061170990612d2e565b915050611442565b508091505090565b6060600560008373ffffffffffffffffffffffffffffffffffffffff1673ffffffffffffffffffffffffffffffffffffffff1681526020019081526020016000208054806020026020016040519081016040528092919081815260200182805480156117a457602002820191906000526020600020905b815481526020019060010190808311611790575b50505050509050919050565b60606000821180156117c457506000548211155b611803576040517f08c379a00000000000000000000000000000000000000000000000000000000081526004016117fa906128f9565b60405180910390fd5b60036000838152602001908152602001600020805480602002602001604051908101604052809291908181526020016000905b828210156118dc57838290600052602060002090600402016040518060800160405290816000820160009054906101000a900473ffffffffffffffffffffffffffffffffffffffff1673ffffffffffffffffffffffffffffffffffffffff1673ffffffffffffffffffffffffffffffffffffffff168152602001600182015481526020016002820154815260200160038201548152505081526020019060010190611836565b505050509050919050565b6004602052816000526040600020818154811061190357600080fd5b90600052602060002001600091509150505481565b6003602052816000526040600020818154811061193457600080fd5b9060005260206000209060040201600091509150508060000160009054906101000a900473ffffffffffffffffffffffffffffffffffffffff16908060010154908060020154908060030154905084565b600560205281600052604060002081815481106119a157600080fd5b90600052602060002001600091509150505481565b600260205281600052604060002081815481106119d257600080fd5b9060005260206000209060040201600091509150508060000160009054906101000a900473ffffffffffffffffffffffffffffffffffffffff16908060010154908060020154908060030154905084565b6060600460008373ffffffffffffffffffffffffffffffffffffffff1673ffffffffffffffffffffffffffffffffffffffff168152602001908152602001600020805480602002602001604051908101604052809291908181526020018280548015611aae57602002820191906000526020600020905b815481526020019060010190808311611a9a575b50505050509050919050565b600082118015611acc57506000548211155b611b0b576040517f08c379a0000000000000000000000000000000000000000000000000000000008152600401611b02906128f9565b60405180910390fd5b60006001600084815260200190815260200160002090508060060160009054906101000a900473ffffffffffffffffffffffffffffffffffffffff1673ffffffffffffffffffffffffffffffffffffffff163373ffffffffffffffffffffffffffffffffffffffff1614611bb4576040517f08c379a0000000000000000000000000000000000000000000000000000000008152600401611bab90613340565b60405180910390fd5b8060060160149054906101000a900460ff1615611c06576040517f08c379a0000000000000000000000000000000000000000000000000000000008152600401611bfd906133d2565b60405180910390fd5b8115158160060160159054906101000a900460ff16151503611c5d576040517f08c379a0000000000000000000000000000000000000000000000000000000008152600401611c5490613464565b60405180910390fd5b818160060160156101000a81548160ff021916908315150217905550827f5671cfbdc814dedf463164eb64d41788059f9b2344ef331233d8e0b379894dfe8342604051611cab929190613484565b60405180910390a2505050565b604051806101400160405280600081526020016060815260200160608152602001606081526020016000815260200160008152602001600073ffffffffffffffffffffffffffffffffffffffff168152602001600015158152602001600015158152602001600081525090565b6000604051905090565b600080fd5b600080fd5b6000819050919050565b611d4c81611d39565b8114611d5757600080fd5b50565b600081359050611d6981611d43565b92915050565b600060208284031215611d8557611d84611d2f565b5b6000611d9384828501611d5a565b91505092915050565b600081519050919050565b600082825260208201905092915050565b6000819050602082019050919050565b600073ffffffffffffffffffffffffffffffffffffffff82169050919050565b6000611df382611dc8565b9050919050565b611e0381611de8565b82525050565b611e1281611d39565b82525050565b608082016000820151611e2e6000850182611dfa565b506020820151611e416020850182611e09565b506040820151611e546040850182611e09565b506060820151611e676060850182611e09565b50505050565b6000611e798383611e18565b60808301905092915050565b6000602082019050919050565b6000611e9d82611d9c565b611ea78185611da7565b9350611eb283611db8565b8060005b83811015611ee3578151611eca8882611e6d565b9750611ed583611e85565b925050600181019050611eb6565b5085935050505092915050565b60006020820190508181036000830152611f0a8184611e92565b905092915050565b611f1b81611d39565b82525050565b600081519050919050565b600082825260208201905092915050565b60005b83811015611f5b578082015181840152602081019050611f40565b60008484015250505050565b6000601f19601f8301169050919050565b6000611f8382611f21565b611f8d8185611f2c565b9350611f9d818560208601611f3d565b611fa681611f67565b840191505092915050565b6000611fbc82611dc8565b9050919050565b611fcc81611fb1565b82525050565b60008115159050919050565b611fe781611fd2565b82525050565b600061014082019050612003600083018d611f12565b8181036020830152612015818c611f78565b90508181036040830152612029818b611f78565b9050818103606083015261203d818a611f78565b905061204c6080830189611f12565b61205960a0830188611f12565b61206660c0830187611fc3565b61207360e0830186611fde565b612081610100830185611fde565b61208f610120830184611f12565b9b9a5050505050505050505050565b600080fd5b600080fd5b7f4e487b7100000000000000000000000000000000000000000000000000000000600052604160045260246000fd5b6120e082611f67565b810181811067ffffffffffffffff821117156120ff576120fe6120a8565b5b80604052505050565b6000612112611d25565b905061211e82826120d7565b919050565b600067ffffffffffffffff82111561213e5761213d6120a8565b5b61214782611f67565b9050602081019050919050565b82818337600083830152505050565b600061217661217184612123565b612108565b905082815260208101848484011115612192576121916120a3565b5b61219d848285612154565b509392505050565b600082601f8301126121ba576121b961209e565b5b81356121ca848260208601612163565b91505092915050565b6121dc81611fb1565b81146121e757600080fd5b50565b6000813590506121f9816121d3565b92915050565b600080600080600060a0868803121561221b5761221a611d2f565b5b600086013567ffffffffffffffff81111561223957612238611d34565b5b612245888289016121a5565b955050602086013567ffffffffffffffff81111561226657612265611d34565b5b612272888289016121a5565b945050604086013567ffffffffffffffff81111561229357612292611d34565b5b61229f888289016121a5565b93505060606122b088828901611d5a565b92505060806122c1888289016121ea565b9150509295509295909350565b60006020820190506122e36000830184611f12565b92915050565b600081519050919050565b600082825260208201905092915050565b6000819050602082019050919050565b600082825260208201905092915050565b600061233182611f21565b61233b8185612315565b935061234b818560208601611f3d565b61235481611f67565b840191505092915050565b61236881611fb1565b82525050565b61237781611fd2565b82525050565b6000610140830160008301516123966000860182611e09565b50602083015184820360208601526123ae8282612326565b915050604083015184820360408601526123c88282612326565b915050606083015184820360608601526123e28282612326565b91505060808301516123f76080860182611e09565b5060a083015161240a60a0860182611e09565b5060c083015161241d60c086018261235f565b5060e083015161243060e086018261236e565b5061010083015161244561010086018261236e565b5061012083015161245a610120860182611e09565b508091505092915050565b6000612471838361237d565b905092915050565b6000602082019050919050565b6000612491826122e9565b61249b81856122f4565b9350836020820285016124ad85612305565b8060005b858110156124e957848403895281516124ca8582612465565b94506124d583612479565b925060208a019950506001810190506124b1565b50829750879550505050505092915050565b600060208201905081810360008301526125158184612486565b905092915050565b61252681611de8565b811461253157600080fd5b50565b6000813590506125438161251d565b92915050565b60006020828403121561255f5761255e611d2f565b5b600061256d84828501612534565b91505092915050565b600081519050919050565b600082825260208201905092915050565b6000819050602082019050919050565b60006125ae8383611e09565b60208301905092915050565b6000602082019050919050565b60006125d282612576565b6125dc8185612581565b93506125e783612592565b8060005b838110156126185781516125ff88826125a2565b975061260a836125ba565b9250506001810190506125eb565b5085935050505092915050565b6000602082019050818103600083015261263f81846125c7565b905092915050565b600081519050919050565b600082825260208201905092915050565b6000819050602082019050919050565b6080820160008201516126896000850182611dfa565b50602082015161269c6020850182611e09565b5060408201516126af6040850182611e09565b5060608201516126c26060850182611e09565b50505050565b60006126d48383612673565b60808301905092915050565b6000602082019050919050565b60006126f882612647565b6127028185612652565b935061270d83612663565b8060005b8381101561273e57815161272588826126c8565b9750612730836126e0565b925050600181019050612711565b5085935050505092915050565b6000602082019050818103600083015261276581846126ed565b905092915050565b6000806040838503121561278457612783611d2f565b5b600061279285828601612534565b92505060206127a385828601611d5a565b9150509250929050565b600080604083850312156127c4576127c3611d2f565b5b60006127d285828601611d5a565b92505060206127e385828601611d5a565b9150509250929050565b6127f681611de8565b82525050565b600060808201905061281160008301876127ed565b61281e6020830186611f12565b61282b6040830185611f12565b6128386060830184611f12565b95945050505050565b61284a81611fd2565b811461285557600080fd5b50565b60008135905061286781612841565b92915050565b6000806040838503121561288457612883611d2f565b5b600061289285828601611d5a565b92505060206128a385828601612858565b9150509250929050565b7f496e76616c69642070726f6a6563742049440000000000000000000000000000600082015250565b60006128e3601283611f2c565b91506128ee826128ad565b602082019050919050565b60006020820190508181036000830152612912816128d6565b9050919050565b7f4e487b7100000000000000000000000000000000000000000000000000000000600052602260045260246000fd5b6000600282049050600182168061296057607f821691505b60208210810361297357612972612919565b5b50919050565b7f4f6e6c79207468652062656e65666963696172792063616e207769746864726160008201527f772066756e647300000000000000000000000000000000000000000000000000602082015250565b60006129d5602783611f2c565b91506129e082612979565b604082019050919050565b60006020820190508181036000830152612a04816129c8565b9050919050565b7f4e6f2066756e647320617661696c61626c6520746f2077697468647261770000600082015250565b6000612a41601e83611f2c565b9150612a4c82612a0b565b602082019050919050565b60006020820190508181036000830152612a7081612a34565b9050919050565b6000604082019050612a8c6000830185611f12565b612a996020830184611f12565b9392505050565b7f4f6e6c79207468652062656e65666963696172792063616e20636f6d706c657460008201527f65207468652070726f6a65637400000000000000000000000000000000000000602082015250565b6000612afc602d83611f2c565b9150612b0782612aa0565b604082019050919050565b60006020820190508181036000830152612b2b81612aef565b9050919050565b7f50726f6a65637420697320616c726561647920636f6d706c6574656400000000600082015250565b6000612b68601c83611f2c565b9150612b7382612b32565b602082019050919050565b60006020820190508181036000830152612b9781612b5b565b9050919050565b7f446f6e6174696f6e20616d6f756e74206d75737420626520677265617465722060008201527f7468616e20300000000000000000000000000000000000000000000000000000602082015250565b6000612bfa602683611f2c565b9150612c0582612b9e565b604082019050919050565b60006020820190508181036000830152612c2981612bed565b9050919050565b7f50726f6a6563742066756e64696e67206973206e6f7420616374697665000000600082015250565b6000612c66601d83611f2c565b9150612c7182612c30565b602082019050919050565b60006020820190508181036000830152612c9581612c59565b9050919050565b7f4e487b7100000000000000000000000000000000000000000000000000000000600052601160045260246000fd5b6000612cd682611d39565b9150612ce183611d39565b9250828201905080821115612cf957612cf8612c9c565b5b92915050565b7f4e487b7100000000000000000000000000000000000000000000000000000000600052603260045260246000fd5b6000612d3982611d39565b91507fffffffffffffffffffffffffffffffffffffffffffffffffffffffffffffffff8203612d6b57612d6a612c9c565b5b600182019050919050565b7f50726f6a656374206e616d652063616e6e6f7420626520656d70747900000000600082015250565b6000612dac601c83611f2c565b9150612db782612d76565b602082019050919050565b60006020820190508181036000830152612ddb81612d9f565b9050919050565b7f50726f6a656374206465736372697074696f6e2063616e6e6f7420626520656d60008201527f7074790000000000000000000000000000000000000000000000000000000000602082015250565b6000612e3e602383611f2c565b9150612e4982612de2565b604082019050919050565b60006020820190508181036000830152612e6d81612e31565b9050919050565b7f50726f6a656374206c6f636174696f6e2063616e6e6f7420626520656d707479600082015250565b6000612eaa602083611f2c565b9150612eb582612e74565b602082019050919050565b60006020820190508181036000830152612ed981612e9d565b9050919050565b7f46756e64696e6720676f616c206d75737420626520677265617465722074686160008201527f6e20300000000000000000000000000000000000000000000000000000000000602082015250565b6000612f3c602383611f2c565b9150612f4782612ee0565b604082019050919050565b60006020820190508181036000830152612f6b81612f2f565b9050919050565b7f496e76616c69642062656e656669636961727920616464726573730000000000600082015250565b6000612fa8601b83611f2c565b9150612fb382612f72565b602082019050919050565b60006020820190508181036000830152612fd781612f9b565b9050919050565b60008190508160005260206000209050919050565b60006020601f8301049050919050565b600082821b905092915050565b6000600883026130407fffffffffffffffffffffffffffffffffffffffffffffffffffffffffffffffff82613003565b61304a8683613003565b95508019841693508086168417925050509392505050565b6000819050919050565b600061308761308261307d84611d39565b613062565b611d39565b9050919050565b6000819050919050565b6130a18361306c565b6130b56130ad8261308e565b848454613010565b825550505050565b600090565b6130ca6130bd565b6130d5818484613098565b505050565b5b818110156130f9576130ee6000826130c2565b6001810190506130db565b5050565b601f82111561313e5761310f81612fde565b61311884612ff3565b81016020851015613127578190505b61313b61313385612ff3565b8301826130da565b50505b505050565b600082821c905092915050565b600061316160001984600802613143565b1980831691505092915050565b600061317a8383613150565b9150826002028217905092915050565b61319382611f21565b67ffffffffffffffff8111156131ac576131ab6120a8565b5b6131b68254612948565b6131c18282856130fd565b600060209050601f8311600181146131f457600084156131e2578287015190505b6131ec858261316e565b865550613254565b601f19841661320286612fde565b60005b8281101561322a57848901518255600182019150602085019450602081019050613205565b868310156132475784890151613243601f891682613150565b8355505b6001600288020188555050505b505050505050565b600060608201905081810360008301526132768186611f78565b90506132856020830185611f12565b6132926040830184611f12565b949350505050565b60006132a582611d39565b91506132b083611d39565b92508282039050818111156132c8576132c7612c9c565b5b92915050565b7f4f6e6c79207468652062656e65666963696172792063616e206368616e67652060008201527f66756e64696e6720737461747573000000000000000000000000000000000000602082015250565b600061332a602e83611f2c565b9150613335826132ce565b604082019050919050565b600060208201905081810360008301526133598161331d565b9050919050565b7f43616e6e6f74206368616e67652066756e64696e6720737461747573206f662060008201527f636f6d706c657465642070726f6a656374000000000000000000000000000000602082015250565b60006133bc603183611f2c565b91506133c782613360565b604082019050919050565b600060208201905081810360008301526133eb816133af565b9050919050565b7f46756e64696e672073746174757320697320616c72656164792073657420746f60008201527f20746865207265717565737465642076616c7565000000000000000000000000602082015250565b600061344e603483611f2c565b9150613459826133f2565b604082019050919050565b6000602082019050818103600083015261347d81613441565b9050919050565b60006040820190506134996000830185611fde565b6134a66020830184611f12565b939250505056fea26469706673582212202f56a3a0a028c8f8e3acbc86f9b5080f1cb01858d38fa2f0d3f6a0153ebcb8f464736f6c63430008130033",
  "linkReferences": {},
  "deployedLinkReferences": {}
}